:02000002D0002C
:1040000000400D0070C60D00000006000C00050108
:084010000401DB0700000000C1
:04401800E4B70D00FC
:1040200009480A49884208B505D0094A824202D0A7
:10403000121A05F0A9FC0748074A0021121A05F0D8
:10404000B1FC014808BD00BF6CE203204CC40D0068
:1040500068E4032068E40320F0E7032070B5074E0E
:10406000074C03F0E1FAA41BA4080025A54200D1E7
:1040700070BD56F8043B98470135F7E704C40D00BE
:104080003CC40D0000F0C8B808B500F073FBBDE8F3
:10409000084003F08BBA02F05DBC02F05BBC02F09A
:1040A00061BC02F05FBC0078B0FA80F04009704754
:1040B0000123037070470000014B00221A70704703
:1040C0007DE403201FB5684603F0B7F803F068FEEF
:1040D0003B4903F0E4F93B49684603F053F90028F3
:1040E00066D0394A39493A4801F0A1FBB5EE400A99
:1040F000F1EE10FA374B3549354814BF0122002242
:104100001A70354A01F093FBB5EE400AF1EE10FA51
:10411000324B2E492E4814BF012200221A70304A19
:1041200001F085FBB5EE400AF1EE10FA2D4B274960
:10413000274814BF012200221A702B4A01F077FB96
:10414000B5EE400AF1EE10FA284B2049204814BF82
:10415000012200221A70264A01F069FB254B264AEB
:104160001A491B48BDEEC00A83ED000A01F05FFB4F
:10417000224B234A15491648BDEEC00A83ED000ABA
:1041800001F055FB1F4B204A10491148BDEEC00AF3
:1041900083ED000A01F04BFB1C4B83ED000A1C4B26
:1041A00001221A70684602F0FDFF05B05DF804FBBD
:1041B0001849684603F0E6F8002892D1F2E700BFFC
:1041C000F8B70D000DB80D007CB80D0015B80D0046
:1041D00094E4032079E403209AB80D007AE40320E4
:1041E0008AB80D007BE403206AB80D007CE403204C
:1041F00046B80D00A8E4032050B80D0074E4032075
:104200005AB80D0080E403201EB80D0070E40320AE
:1042100078E4032024B80D0013B501210B2004F02D
:10422000CDFA01210C2004F0C9FA01210D2004F07F
:10423000C5FA0121042004F0C1FA0121052004F08F
:10424000BDFA0121022004F0B9FA0121032004F093
:10425000B5FA0121062004F0B1FA01210A2004F088
:10426000ADFA0021084604F0A9FA0121084604F03D
:10427000A5FA0121072004F0A1FA0024002108205A
:1042800004F09CFA2246084900944FF0FF330820BE
:1042900003F0B2FDCDE9004404490548012322465C
:1042A00002F048FB02B010BDB9400D00C5400D0042
:1042B00032B80D0010B5584C237843B33221052095
:1042C00004F0B9FA4FF4FA6003F024F982210520D2
:1042D00004F0B1FA4FF4FA7003F01CF946210420FF
:1042E00004F0A9FA4FF4FA6003F014F982210420D3
:1042F00004F0A1FA4FF4FA7003F00CF900232370D4
:10430000464B01221A70464A1368013B1360454C24
:10431000237843B33221032004F08DFA4FF4FA607E
:1043200003F0F8F88221032004F085FA4FF4FA70C4
:1043300003F0F0F83221022004F07DFA4FF4FA6025
:1043400003F0E8F88221022004F075FA4FF4FA70C5
:1043500003F0E0F800232370334B01221A70334A34
:104360001368013B1360324C237843B3B42105201A
:1043700004F061FA4FF4FA6003F0CCF882210520D2
:1043800004F059FA4FF4FA7003F0C4F8BE21042087
:1043900004F051FA4FF4FA6003F0BCF882210420D3
:1043A00004F049FA4FF4FA7003F0B4F800232370D4
:1043B000204B01221A70204A1368013B13601F4CE6
:1043C000237843B3AA21032004F035FA4FF4FA60AE
:1043D00003F0A0F88221032004F02DFA4FF4FA70C4
:1043E00003F098F8DC21022004F025FA4FF4FA607B
:1043F00003F090F88221022004F01DFA4FF4FA70C5
:1044000003F088F8002323700D4B01221A700D4A27
:104410001368013B136010BD7CE40320A6E4032075
:1044200070E2032079E40320A0E4032074E2032077
:104430007BE40320A5E4032078E203207AE4032050
:10444000A2E403207CE2032008B5FA21062004F050
:10445000F2F9094B9FED097AD3ED007A67EE877A7E
:10446000FCEEE77A17EE900A03F054F8BDE8084036
:104470000021062004F0DFB970E4032000606A47E1
:1044800038B5002105460D2004F0A9F901210C20C2
:1044900004F0A5F90024AC424FF001010EDA0B2024
:1044A00004F09DF9022003F035F800210B2004F000
:1044B00096F9022003F02EF80134ECE7BDE838400D
:1044C0000D2004F08CB900002DE9F843434D2B6812
:1044D000002B0DDD424B1B7853B90121084604F037
:1044E0007EF9404A1368053B13603F4B01221A7066
:1044F00000210A2004F073F92B683C4C3C4E3C2010
:10450000584303F007F80021012004F068F927461A
:104510002368002B12DDC820FFF7B2FF236835495E
:10452000013B23600B68023B0B60334B01224FF4CD
:10453000FA6032701A7002F0EDFFE9E74FF4FA60AA
:1045400002F0E8FF01210A2004F049F94FF4FA6073
:104550002A4CDFF8B89002F0DDFFA0462368002B5C
:1045600013DDC820FFF78CFF2368013B2360D9F8D7
:104570000030023BC9F80030214B01224FF4FA60B1
:1045800032701A7002F0C6FFE8E71E4C00210A20C4
:1045900004F025F9D4ED007AF5EE407AF1EE10FA48
:1045A0000FD00620012104F01AF9D4ED007A9FED16
:1045B000167A67EE877AFCEEE77A17EE900A02F039
:1045C000A9FF002421460620347004F034F93C6031
:1045D000C8F800402C60BDE8F88300BFA8E40320C1
:1045E00084E4032084E20320A4E4032080E4032085
:1045F0006DE4032088E20320A3E4032074E4032095
:10460000A1E4032070E4032000606A478CE20320E9
:104610002DE9F84F3E4F3F4C3B780BB9237843B11F
:104620003D4B3E4993ED000A3D48B8EEC00A01F00B
:10463000F2F83C4E33780BB9237843B13A4B3B49FF
:1046400093ED000A3648B8EEC00A01F0E4F8384DA0
:104650002B780BB9237843B1364B374993ED000AD9
:104660002F48B8EEC00A01F0D6F8344B1A789A46B3
:104670000AB9237843B1324B324993ED000A2848F6
:10468000B8EEC00A01F0C7F82F4B1A789B460AB95A
:10469000237843B12D4B2E4993ED000A2048B8EE04
:1046A000C00A01F0B8F82B4B1A7898460AB923785B
:1046B00043B1294B294993ED000A1948B8EEC00AC5
:1046C00001F0A9F8264B1A7899460AB9237843B124
:1046D000244B254993ED000A1148B8EEC00A01F0B9
:1046E0009AF8224B0E481A78214B196801F09CF871
:1046F00000238BF800308AF8003089F8003088F801
:1047000000303B7033702B702370BDE8F88F00BF12
:10471000A4E4032080E2032084E2032041B80D00DA
:1047200088E40320A1E403208CE203204BB80D00B1
:10473000A3E4032088E2032055B80D00A6E403207B
:1047400070E2032061B80D00A0E4032074E20320AE
:1047500073B80D00A5E4032078E2032081B80D00B2
:10476000A2E403207CE2032091B80D006CE4032056
:104770006CE203202DE9F0479F4B1B78B2B00BB1E0
:10478000FFF746FF9D4E9E499E4FDFF8C4A2DFF81B
:10479000C492DFF8C4829C4D0AA802F04EFD0A22A2
:1047A000317806A802F089FD06A90AA802F0C9FD21
:1047B000964902F0D2FD964B0A22197804460EA8BB
:1047C00002F07BFD0EA9204602F0BBFD914902F0EC
:1047D000C4FD914B0A221978044612A802F06DFD1F
:1047E00012A9204602F0ADFD8C4902F0B6FD8C4BBB
:1047F0000A221978044616A802F05FFD16A9204681
:1048000002F09FFD874902F0A8FD874B0A22197824
:1048100004461AA802F051FD1AA9204602F091FDA3
:10482000824902F09AFD0A22044639681EA802F065
:1048300044FD1EA9204602F084FD7D4902F08DFD55
:104840000A220446DAF8001022A802F036FD22A956
:10485000204602F076FD774902F07FFD0A220446E9
:10486000D9F8001026A802F028FD26A9204602F05B
:1048700068FD714902F071FD98ED000A04460621B9
:104880002AA802F02DFD2AA9204602F05AFD6B4904
:1048900002F063FD0A22297804462EA802F00DFDDD
:1048A0002EA9204602F04DFD014602A802F0E8FCC8
:1048B0002EA802F077FC2AA802F074FC26A802F0C9
:1048C00071FC22A802F06EFC1EA802F06BFC1AA874
:1048D00002F068FC16A802F065FC12A802F062FC67
:1048E0000EA802F05FFC06A802F05CFC0AA802F029
:1048F00059FC03F055FA029902F0D1FD3378002BF0
:1049000062D0287898B103249621072003F093FF02
:104910004FF4167002F0FEFD0021072003F08BFF1C
:104920004FF4167002F0F6FD013CEDD14FE001238B
:104930002B7003F06DFF424B002814BF01220022B0
:104940001A7031D03F4B404A1B788DF800303F49F8
:104950003C232EA802F0C0FF2F9C7CB16368013B72
:1049600063605BB9236820469B689847A368013B56
:10497000A3601BB923682046DB68984700233B608F
:10498000337006246421072003F055FF4FF496701E
:1049900002F0C0FD0021072003F04DFF4FF4967098
:1049A00002F0B8FD013CEDD1DAF800203B6813437A
:1049B000D9F80020134314D0FFF786FDFFF77AFCE7
:1049C00000233370FFF724FE2B78002B9BD14FF48C
:1049D0007A7002F09FFD02A802F0E4FB32B0BDE85D
:1049E000F087D8ED007AF5EE407AF1EE10FAE5D0D6
:1049F000FFF72AFDE2E700BF80E2032078E403200E
:104A0000A2B80D00A8E403207DE40320ACB80D009B
:104A10007CE40320B7B80D0079E40320BEB80D0094
:104A20007BE40320C7B80D007AE40320D1B80D0061
:104A3000D9B80D00E1B80D00EBB80D00F3B80D00CA
:104A400084E403206CE40320FBB80D00FDB80D00E6
:104A500074E4032080E4032070E4032070B50E4B5F
:104A60000E4C0F4E0F4D104900221A7020460322A3
:104A700000F0B0FE20460D4C3246294603F042FFBE
:104A80000B490122204600F0A5FE32462946204669
:104A9000BDE8704003F036BF6CE4032088E40320D7
:104AA00068E40320F1570D0005B90D0094E40320DC
:104AB0000DB90D000175704738B584690A4B036064
:104AC00005467CB16368013B63605BB9236820469F
:104AD0009B689847A368013BA3601BB923682046E5
:104AE000DB689847284638BDECBF0D0010B504467A
:104AF000FFF7E2FF20461C2103F009FF204610BD0E
:104B000030B5064D0560C0E901130025039B05750E
:104B100041F28835C0E90332856130BD58BA0D00D5
:104B20002DE9F84F0D461746804603F039F91E4926
:104B30001E4EDFF87CA0DFF87CB002F0B0FC002451
:104B4000304603F0CAFC60BB052C2AD098F814301C
:104B5000C3B103F025F9514602F08EFC03F020F9B1
:104B6000294602F089FC03F01BF9594602F084FC47
:104B700003F016F90A228146214602F09AFC4846C3
:104B800002F081FC304603F091FC0023BAB22946C2
:104B9000304603F02FFB4FF47A7002F0BBFC013477
:104BA000CEE7BDE8F88F00BF40B90D00ACE40320AC
:104BB00058B90D006EB90D0070B504460E468168F7
:104BC0002E48154602F058FC2D492C4802F054FCA2
:104BD000E1682A4802F050FC2A49284802F04CFCBF
:104BE0003146264802F048FC2749244802F044FC9C
:104BF0002946224802F040FC2449204802F03CFCAF
:104C0000237D002B38D003F0CBF8214902F047FC7C
:104C100003F0C6F81F4902F042FC03F0C1F8A16896
:104C200002F02AFC03F0BCF8154902F025FC03F061
:104C3000B7F8E16802F020FC03F0B2F8114902F085
:104C40001BFC03F0ADF8314602F016FC03F0A8F8A7
:104C50000D4902F011FC03F0A3F8294602F00CFC08
:104C600003F09EF8094902F007FC03F099F8BDE84B
:104C70007040094902F013BC70BD00BFACE40320D2
:104C800082B90D0085B90D00CFB80D0086BB0D00AF
:104C90009DB90D0087B90D009CB90D00F8B50E4FF8
:104CA00004460026384603F0A7FB054690B9A369E1
:104CB000B3420FDD012002F02DFCA3690136B3429F
:104CC000F0DC207D28B103F06BF8044902F0E7FB2B
:104CD0002846F8BD0120FCE7ACE40320A2B90D0092
:104CE0002DE9F047037D0646884614464BB103F094
:104CF00057F8274902F0D3FB03F052F8254902F098
:104D0000CEFBDFF8A490002540F2BB2A484603F012
:104D100073FB78B1484603F028FA337DC7B22BB154
:104D200003F03EF8036839469B689847675501359C
:104D30005545EBD1337D23B103F032F8164902F02B
:104D4000AEFB002363551549404604F064FE68B984
:104D50001349204604F0BCFE9FED120A0028F7EE2E
:104D6000007A18BFB0EE670ABDE8F0877C212046C4
:104D700004F044FE48B1013004F0F4FD51EC100B96
:104D800004F006FC00EE100AEEE79FED060AEBE7E2
:104D9000E9B90D00D5B90D00E8B90D00F4B90D0061
:104DA000F9B90D005F42A2CDACE4032070B52DED42
:104DB000028B04464168224842F234321D460023E9
:104DC00003F018FA2046616842F23432FFF7A8FE79
:104DD0001B4803F02EF948B32946194802F04CFB52
:104DE0002046FFF75BFF054638B9154803F05EFB28
:104DF0000025BDEC028B284670BD642001F0AAFDA1
:104E00001049024606462046FFF76AFF3046B0EEDC
:104E1000408A01F0A7FDDFED0C7AB4EE678AF1EE6F
:104E200010FAE2D0064803F041FBE2E7237D002BB5
:104E3000DBD002F0B5FF054902F031FBD5E700BF3A
:104E4000ACE40320F4B90D005F42A2CDFCB90D0023
:104E500070B52DED028B044600230D4616464168C1
:104E60001E4842F2343203F0C5F92046616842F22E
:104E70003432FFF755FE194803F0DBF828B320461B
:104E800032462946FFF798FE2046FFF707FF48B94C
:104E900012489FED138A03F009FBB0EE480ABDECFF
:104EA000028B70BD4FF42F7001F054FD0D49024686
:104EB00005462046FFF714FF0848B0EE408A03F08D
:104EC000F5FA284601F04EFDE7E7237D002BDFD001
:104ED00002F066FF044902F0E2FAD9E7ACE40320ED
:104EE0005F42A2CD1ABA0D001DBA0D0070B505467D
:104EF0000C464CB1E1682846FFF7F8FFA66820464B
:104F0000FFF7CDF83446F4E770BD2DE9F0470446CD
:104F1000182015460F46FFF7BEF807F1040A6B6824
:104F2000D5F80090BA6843610646C0F8109055461F
:104F3000012352B113694B45CCBF9168D168154626
:104F4000CCBF012300230A46F3E7A3B1FB68AB42C1
:104F500023D0284603F033FD8046D8F810304B4567
:104F60001BDB3046FFF79BF8C4F800800023237159
:104F70002046BDE8F087A846EFE728698145ACBF29
:104F80000020012053462A46314603F01AFD7B6972
:104F9000266001337B610123E9E7AA45EDD10120B9
:104FA000F0E700002DE9FF470D4604464FF42F704F
:104FB00001F0D0FC2B7D07464BB102F0F1FE3A49DF
:104FC00002F06DFA02F0ECFE384902F068FADFF800
:104FD000F090002640F2BB2A484603F00DFA88B153
:104FE000484603F0C2F82B7D5FFA80F82BB102F03F
:104FF000D7FE036841469B68984707F8068001364C
:105000005645E9D12B7D23B102F0CAFE284902F0B2
:1050100046FA0025231DC4E90253C4E90435254995
:1050200025713846BD5505F09DFBDFF89890DFF8F7
:1050300098A0DFF8808006467EB34946304604F0EB
:10504000EAFC00BB414605F08DFB1B49064604F017
:10505000E2FC18B9194B0095019308E0304604F0C2
:1050600081FC51EC100B009504F092FA01906A4615
:10507000214602A8FFF749FF4146002005F072FBD8
:1050800001350646D8E75146304604F0C4FC0028F6
:10509000F2D1414605F066FBDCE7384601F062FCE0
:1050A000204604B0BDE8F087E9B90D00D5B90D0080
:1050B000E8B90D0085B90D0043BA0D005F42A2CDDD
:1050C000ACE40320F9B90D0048BA0D002DE9F04118
:1050D000071D98460023C0E90237C0E90473037135
:1050E0000D4688B04968044616462E4842F23432CE
:1050F00003F080F82846696842F23432FFF710FD69
:10510000284802F096FF10B3314642462846FFF782
:1051100053FD2846FFF7C2FD0646C0B92148224F7D
:1051200003F0C4F92149404605F01CFB35461F4EEB
:10513000002832D0214602A86A4600950197FFF761
:10514000E4FE31460020013505F00CFBF0E729466E
:1051500002A8FFF727FFA1682046FFF7C7FE049AC1
:105160000023C4E90237C4E904737AB19DF80C1036
:1051700021710599E1600699A26021615760079A43
:10518000626103AACDE905220493079302A804995A
:10519000FFF7ACFE034803F089F9204608B0BDE8EC
:1051A000F08100BFACE403205F42A2CD3FBB0D0005
:1051B00010B5054C204603F0C9F92046034A0449BE
:1051C000BDE8104003F09EBBACE4032068E403207C
:1051D000B94A0D0010B5064B036064330446036101
:1051E00001F056FD204601F019FF204610BD00BF1A
:1051F00068BE0D0010B50446FFF7ECFF20464C21B9
:1052000003F085FB204610BD10B50446006808B1C8
:10521000FEF747FFE06801F0A5FB606810B10421CC
:1052200003F075FB204610BD38B5044601206074BC
:1052300094F91000E56800EB800045F8201094F91F
:105240001010E06801EB810100EB810181ED020AA1
:1052500094F91010E06801EB810100EB81014A60D4
:1052600094F91020E16802EB820201EB8202D36024
:1052700094F91030E26803EB830302EB8303049A92
:105280001A61237C01335BB20A2B237408DDA37CF3
:1052900023B102F085FD034902F001F90A232374CA
:1052A00038BD00BF68BA0D0010B5C37C023B012BAE
:1052B00005D940680368BDE810405B68184702F0F4
:1052C0006FFD034902F0EBF89FED020A10BD00BF2D
:1052D000A7BA0D005F42A2CD10B510EE100A86B03D
:1052E0000C4603F043FE02460B4601A80A4901F0B2
:1052F00049FB01A81422002310F8011B202906D025
:10530000E1540133DBB211B9E15406B010BD013AEA
:1053100012F0FF02F0D1F8E7EBBA0D002DE9F04FE3
:105320000C4689B04C49DFF85481DFF85491DFF81E
:1053300054A10546204604F078FB002695F910306C
:105340009E426ADAEB6806EB860B03EB8B0393ED68
:10535000020A03A92846FFF7BFFFEB6803A90091E3
:1053600053F82B3022464146204601F00BFBEB68F8
:105370004FEA8B073B44DB6843B32246494620464D
:1053800001F000FBEB683B441B69002B38D00A207E
:1053900093FBF0F191FBF0FC00FB1C1C00FB1131B6
:1053A000C9B2642293FBF2F292FBF0FE00FB1E22D4
:1053B00000915FFA8CF32949D2B202A801F0E2FA17
:1053C000274902AB2246204601F0DCFAEB681F4475
:1053D0007B6823B123492246204601F0D3FA2246B6
:1053E0002149204601F0CEFA013695F91030F6B287
:1053F0009E4222460ADA1D49204601F0C3FA9DE783
:1054000022465146204601F0BDFADFE71649204604
:1054100001F0B8FA00232B7490E7AB7CC3B102F023
:10542000BFFC134902F03BF802F0BAFC114902F04C
:1054300036F802F0B5FC214602F031F802F0B0FC7B
:105440000B4902F02CF802F0ABFC0B4902F027F8F4
:1054500009B0BDE8F08F00BFF0BA0D0018BB0D0019
:105460001FBB0D002ABB0D0039BB0D003DBB0D005D
:10547000E9B90D0041BB0D0011BD0D00F2BA0D00E0
:1054800005BB0D0024BB0D002DE9F04F0C46054671
:1054900089B05249DFF87481DFF8749120461646CE
:1054A0001F4604F0C2FAAB684D4A4E49204601F04F
:1054B00069FA33464C4900972246204601F062FAC9
:1054C0004A49494F2246204601F05CFA002695F9E8
:1054D00010309E4264DAEB6806EB860B03EB8B031D
:1054E00093ED020A03A92846FFF7F6FEEB6803A92D
:1054F000009153F82B3022463946204601F042FAFB
:10550000EB684FEA8B0A53445B6823B1224641465D
:10551000204601F037FAEB685344DB683BB3224680
:105520004946204601F02EFAEB6853441B6953B3F9
:105530000A2093FBF0F191FBF0FC00FB1C1C00FB2C
:105540001131C9B2642293FBF2F292FBF0FE00FB30
:105550001E2200915FFA8CF32549D2B202A801F015
:1055600011FA244902AB2246204601F00BFA95F9C4
:1055700010300136F6B29E4222460ADA1E49204613
:1055800001F000FAA3E71D492246204601F0FAF98E
:10559000EDE71B49204601F0F5F900232B7496E74F
:1055A000AB7CC3B102F0FCFB164901F078FF02F0BE
:1055B000F7FB154901F073FF02F0F2FB214601F001
:1055C0006EFF02F0EDFB0F4901F069FF02F0E8FB0E
:1055D000024901F064FF09B0BDE8F08F11BD0D0074
:1055E0004ABB0D005EBB0D006ABB0D0072BB0D0017
:1055F00018BB0D001FBB0D003DBB0D0024BB0D00F3
:1056000084BB0D00E9B90D0041BB0D0077BB0D0057
:105610007DBB0D002DE9F74304464FF42F701E4665
:105620000F46904601F096F9E37C013B012B0546BD
:1056300026D8014643463A462046FFF725FFA37C7D
:1056400023B102F0ADFB114901F029FF6068036846
:105650000096D3F8009039462B464246C847074685
:10566000284601F07FF91EB10121304603F04FF9C1
:10567000002307B163743846237403B0BDE8F08398
:1056800001462046FFF74AFED9E700BF8BBB0D005D
:1056900070B5044601200D461646FEF7FCFC067068
:1056A00003462A4629462046BDE87040FFF7B2BFB0
:1056B00070B505460C4684B1E1682846FFF7F8FF4F
:1056C000E369A66823B104F1140103220846984750
:1056D0002046FEF7E4FC3446EDE770BDF0B58DB032
:1056E000044601A80D4617461E4601F013F903981B
:1056F0000130FEF7D2FC0199206004F096F92A46A9
:1057000033463946E67405A800F050FDC82001F084
:1057100021F9E06005A800F06DFC0023C4E9010553
:105720000899237406A8FFF7C3FF01A801F03AFD0A
:105730000DB0F0BD38B5002504460582FFF7CEFF59
:10574000204638BD10B5104B104C00221A70204670
:1057500002F0FCFE20460E4C0E4A0F4903F0D2F830
:10576000204602F0F3FE20460C4C0A4A0A4903F098
:10577000C9F8204601F032FC2046064A0849BDE837
:10578000104003F0BFB800BF4CE5032030E5032014
:10579000C8E4032068E40320B94A0D00E4E40320D0
:1057A000D5510D0073B5037204465020CDE9002198
:1057B0001E4601F0CFF860601420FEF76CFC054631
:1057C00020B1DDE900213346FFF7B4FF256002B0C8
:1057D00070BD000038B50025044613464572857239
:1057E000024AFFF7DFFF204638BD00BF9BBB0D001C
:1057F00038B50446406801F0B5F8256835B128464B
:10580000FFF702FD1421284603F081F8204638BD39
:105810000068FFF709BD07B5002300931A46FFF79C
:10582000F7FF03B05DF804FB0068FFF731BF0068C5
:10583000FFF73ABD017570470022011DC0E9022142
:10584000C0E904120271704770B506462DED028B57
:10585000142001F07FF80546142001F07BF804467F
:10586000304604F008F9324600230238984214DD2D
:1058700012F8011B0D293AD111780A2937D1517834
:105880000D2934D191780A2931D10433F118142229
:10589000284604F00AF900232B750A21284604F053
:1058A000ADF8064628B30A21013004F0A7F800B38A
:1058B0003146204604F0B9F8204604F0DCF82044D4
:1058C000002300F8013C204604F04CF851EC100B8A
:1058D00003F05EFE08EE100A204601F043F8284669
:1058E00001F040F8B0EE480ABDEC028B70BD013308
:1058F000BCE79FED018AF5E75F42A2CD30B5074DC9
:1059000005600025C0E901130575039B41F2883548
:1059100085610525C0E90332057730BD40BD0D0026
:105920002DE9F74FDFF88C80DFF88CA0DFF88CB022
:1059300004460D461746002640465FFA86F902F0F7
:1059400078FB88BB237F4B452ED9237DCBB102F05A
:1059500027FA514601F090FD02F022FA294601F0A3
:105960008BFD02F01DFA594601F086FD02F018FA8F
:105970000A224946019001F09CFD019B184601F066
:1059800082FD0023BAB22946404602F033FC237D53
:1059900023B102F005FA064901F081FD4FF47A7057
:1059A00001F0B8FD0136C7E703B0BDE8F08F00BFD6
:1059B000B6BB0D0050E5032058B90D006EB90D00BF
:1059C0002DE9F0414B1E0C4601F52F7205460021D2
:1059D00003F8011F9342FBD12B7D4BB102F0E0F99C
:1059E000144901F05CFD02F0DBF9134901F057FDA9
:1059F000124F002640F2BB28384602F0FDFC70B181
:105A0000384602F0B2FBA0552B7D2BB102F0C8F94D
:105A10000368A15D9B68984701364645ECD12B7D14
:105A200033B102F0BDF9BDE8F041054901F037BDE1
:105A3000BDE8F081E9B90D00D5B90D0050E50320AE
:105A4000E8B90D00F8B50E4F04460026384602F0BE
:105A5000D3FC054690B9A369B3420FDD012001F0E4
:105A600059FDA3690136B342F0DC207D28B102F074
:105A700097F9044901F013FD2846F8BD0120FCE721
:105A800050E50320A2B90D00F8B50F460269416840
:105A900004461D46FFF744FF784802F0CAFA06465E
:105AA000002800F0E1807649744801F0E5FC3946B1
:105AB000724801F0E1FC7349704801F0DDFC724965
:105AC0006E4801F0D9FC61686C4801F0D5FC6F4963
:105AD0006A4801F0D1FC6E49684801F0CDFCA1682C
:105AE000664801F0C9FC6949644801F0C5FC694990
:105AF000624801F0C1FCE168604801F0BDFC634907
:105B00005E4801F0B9FC64495C4801F0B5FC6349AA
:105B10005A4801F0B1FC284603F0ADFF6049064643
:105B2000564801F0A9FC0A223146544801F0C1FC54
:105B30005C49524801F0A0FC2946504801F09CFC09
:105B400052494E4801F098FC4C4802F071FA237D0E
:105B5000002B69D002F024F9534901F0A0FC02F0B7
:105B60001FF9474901F088FC02F01AF9394601F0A3
:105B700083FC02F015F9434901F07EFC02F010F9B4
:105B8000414901F079FC02F00BF9616801F074FC05
:105B900002F006F93D4901F06FFC02F001F93C49C1
:105BA00001F06AFC02F0FCF8A16801F065FC02F06B
:105BB000F7F8364901F060FC02F0F2F8354901F0DF
:105BC0005BFC02F0EDF8E16801F056FC02F0E8F849
:105BD0002E4901F051FC02F0E3F82F4901F04CFC92
:105BE00002F0DEF82D4901F047FC02F0D9F82C490B
:105BF00001F042FC02F0D4F80A22314601F059FCCF
:105C000002F0CEF8274901F037FC02F0C9F8294626
:105C100001F032FC02F0C4F81C4901F02DFC02F046
:105C2000BFF8224901F03BFC2046FFF70BFF237D24
:105C30002BB90124114802F039FC2046F8BD02F0CE
:105C4000AFF81B490D4D01F02AFC284602F0D4FBA9
:105C50000028EED0284602F088FA044602F0A0F8A8
:105C6000E1B201F00DFCF0E7247D002CE2D002F05F
:105C700097F8104901F013FC3446DBE750E50320A8
:105C8000C7BB0D00DFBB0D00EBBB0D000FBD0D0052
:105C9000F2BB0D00FFBB0D000EBC0D0022BC0D00C1
:105CA00043BC0D000DBD0D0054BC0D0070BC0D00BB
:105CB0008EBC0D00AABC0D0070B52DED028B044604
:105CC00000230E46154641686648502202F092FABB
:105CD000204661685022FFF723FE624802F0A9F9CE
:105CE000002800F0B68060495E4801F0C5FB3146EF
:105CF0005C4801F0C1FB5D495A4801F0BDFB2946F3
:105D0000584801F0B9FB5A49564801F0B5FB5949CA
:105D1000544801F0B1FB5849524801F0ADFB6168AD
:105D2000504801F0A9FB55494E4801F0A5FB5449E4
:105D30004C4801F0A1FBA1684A4801F09DFB4F4986
:105D4000484801F099FB4F49464801F095FBE1684E
:105D5000444801F091FB4949424801F08DFB4A4912
:105D6000404801F089FB237D002B4FD002F018F84A
:105D70003D4901F081FB02F013F8314601F07CFB54
:105D800002F00EF8394901F077FB02F009F82946D4
:105D900001F072FB02F004F8354901F06DFB01F0EF
:105DA000FFFF344901F068FB01F0FAFF324901F0CE
:105DB00063FB01F0F5FF616801F05EFB01F0F0FFAD
:105DC0002E4901F059FB01F0EBFF2D4901F054FB86
:105DD00001F0E6FFA16801F04FFB01F0E1FF274968
:105DE00001F04AFB01F0DCFF264901F045FB01F020
:105DF000D7FFE16801F040FB01F0D2FF1F4901F03D
:105E00003BFB01F0CDFF204901F036FB2046FFF7B8
:105E100019FE48B913489FED1D8A02F047FBB0EE0A
:105E2000480ABDEC028B70BD4FF42F7000F092FD5C
:105E3000014605462046FFF7C3FD2846FFF704FD4F
:105E40000848B0EE408A02F031FB284600F08AFD97
:105E5000E5E7237D002BDDD001F0A2FF0C4901F026
:105E60001EFBD7E750E50320D4BC0D00E9BC0D00B4
:105E7000EBBC0D00DFBB0D00EBBB0D000FBD0D003B
:105E8000F2BB0D00FFBB0D00EFBC0D005F42A2CDC9
:105E900012BD0D0010B5054C204602F057FB204600
:105EA000034A0449BDE8104002F02CBD50E5032030
:105EB00068E40320B94A0D0003681847012A03D09B
:105EC000022A03D0002070470160FBE70B680360E3
:105ED000F8E7000013B51C20FEF7DDF8044648B1D2
:105EE000064B07491B6800930968064B42F234329F
:105EF000FEF706FE204602B010BD00BFF4E5032009
:105F0000F0E503204ABB0D0013B52020FEF7C3F8CF
:105F1000044640B1054B06491B6800930968054BD0
:105F20005022FFF7EBFC204602B010BDF4E5032041
:105F3000F0E503204ABB0D0013B51C20FEF7ABF8BB
:105F4000044648B1064B07491B6800930968064B95
:105F500042F2343200F0B4F9204602B010BD00BF66
:105F6000F4E50320F0E503204ABB0D0013B514202F
:105F7000FEF791F8044640B1054B06491B680093B3
:105F8000002309681A4600F07DFA204602B010BDD1
:105F9000F4E50320F0E5032010B58368044613B14F
:105FA000032201469847204610BD000010B586B078
:105FB00002AB0291044693E803006A4682E80300BC
:105FC00094E8030083E8030092E80300A2680492C7
:105FD000064AA260E2680592054AE26084E803008E
:105FE0001846FFF7D9FF204606B010BDBD5E0D0074
:105FF000B95E0D0070B500F10801C2680B463AB1F8
:10600000157C0478A5422ABF1346D2689268F6E749
:10601000994204D000781A7C904238BF0B46DA6966
:106020000AB902F02AFDBDE870401A6A03F11400B3
:1060300010478B6870B5164604460D1D01225BB1F2
:1060400030781A7C904234BF9868D8681D4634BFB7
:10605000012200220346F2E792B1CA68AA4203D1A4
:10606000C4E90035204670BD284602F0A8FC33780C
:10607000027C9A424FF00003F2D3C4E90003F1E737
:106080002846F4E72DE9F04300F10408856885B05F
:1060900006468946444655B199F800302A7C9A4212
:1060A00036BFEB68AB6825462C461D46F3E7A04596
:1060B00004D099F80020237C9A422ED22420FDF7A8
:1060C000EAFF99F8009080F810900023A045074659
:1060D00000F11002C36125D173691BB131690B7CDA
:1060E0004B4509D3314602A8FFF7A3FFDDE9024182
:1060F000002951D0002C4DD188454BD0387C0B7CE9
:1061000098422CBF0020012043460A46394602F03F
:1061100058FC7369013373613C4604F1140005B007
:10612000BDE8F083237C01924B4518D9F3689C426B
:1061300009D0204602F043FC037C019A4B4505D26E
:10614000C36853B9044621461C46D1E7314602A82C
:10615000FFF76FFFDDE90234F5E72346F3E71BD2D3
:1061600031698C420BD0204602F016FC037C019A68
:106170004B45054605D9E36853B921461D462C46D3
:10618000B6E7314602A8FFF754FFDDE90251F6E712
:106190000146F4E70120B7E707F11400FFF7FCFE22
:1061A0003846FDF77CFF2746B6E700002DE9F341AE
:1061B000051D0026174600F10802C0E90362C0E988
:1061C000052604468846067203700DF10701012377
:1061D00028468DF80730FFF755FF1649FFF7E6FE12
:1061E0000DF1070128468DF80760FFF74BFF1249B4
:1061F000FFF7DCFE02230DF1070128468DF807307A
:10620000FFF740FF0D49FFF7D1FE03230DF1070112
:1062100028468DF80730FFF735FF0949FFF7C6FE1E
:10622000084BC3F80080084B20461F6002B0BDE851
:10623000F08100BFD55E0D00095F0D00395F0D00D4
:106240006D5F0D00F0E50320F4E5032010B50E4C62
:10625000204602F07BF920460C4C0D4A0D4902F015
:1062600051FB204602F072F920460B4C084A0949BE
:1062700002F048FB204600F0B1FE2046044A0749E0
:10628000BDE8104002F03EBBD4E503206CE50320DE
:1062900068E40320B94A0D0088E50320D5510D00BC
:1062A0009FED010A704700BF5F42A2CD01757047A4
:1062B0000022011DC0E90221C0E9041202717047E9
:1062C00030B5064D0560C0E901130025039B057537
:1062D00041F28835C0E90332856130BD04BE0D004E
:1062E00010B5054C204600F079FE2046034A0449CB
:1062F000BDE8104002F006BBF8E5032068E4032087
:10630000D5510D0010B504464A68024902F0A4F9BF
:10631000204610BDB8E70320F0B58FB00146064611
:1063200002A81F46FFF7EEFF02A801F0A5FCA0B9E6
:10633000337D23B101F034FD274901F0B0F8F32398
:10634000009337223D23A92108A809AD01F0B8FC2C
:106350000FCD03AC0FC42B682370002240F2BD2187
:106360001E4800F06DFE002242F234311B4800F05E
:1063700043FC03AD1A4B08930FCD09AC0FC42B6837
:106380001648237042F2343208A900F075FE58B95D
:10639000337D23B101F004FD124901F080F80F486C
:1063A00000F076FC002014E0002FF1D0384603F016
:1063B00062FB39460246094800F078FC0028E7D025
:1063C000064800F0D3FC0028E2D0044800F060FC4E
:1063D00001200FB0F0BD00BF50BD0D00F8E5032057
:1063E0001CBF0D00DCBD0D009FED010A704700BF12
:1063F0005F42A2CD017470470022011DC0E9022155
:10640000C0E904120271704730B585B01A46089B86
:106410001B788DF8003002A83C2301F05DFA0020C3
:10642000029C00F0F3F920B1637813B900F062FA2E
:10643000FAE76378BFF35B8F651CABB90025039C5B
:106440007CB16368013B63605BB9236820469B684D
:106450009847A368013BA3601BB923682046DB680B
:106460009847284605B030BD002000F0CFF920B194
:106470002B7813B900F03EFAFAE72378012BDDD12F
:10648000257BDCE710B5044C0460C0E9011300244F
:10649000029B0474C36010BD1CBE0D0008B5024B06
:1064A0001B689B68019308BD6802030008B5024B96
:1064B0001B68DB68019308BD6802030008B5024B46
:1064C0001B685B68019308BD2C02030008B5024BF2
:1064D0001B689B68019308BD2C02030008B5024BA2
:1064E0001B68DB68019308BD2C02030008B5024B52
:1064F0001B681B69019308BD2C02030008B5024B01
:106500001B685B69019308BD2C02030008B5024BB0
:106510001B689B69019308BD2C02030008B5024B60
:106520001B68DB69019308BD2C02030008B5024B10
:106530001B689B6A019308BD2C02030008B5024B3F
:106540001B689B6F019308BD2C02030008B5024B2A
:106550001B685B69019308BD6C02030008B5024B20
:106560001B685B68019308BD1802030008B5024B65
:106570001B685B69019308BD1802030008B5024B54
:106580001B685B6C019308BD4802030008B5024B11
:106590001B689B6C019308BD4802030008B5024BC1
:1065A0001B685B69019308BD6402030008B5024BD8
:1065B0001B681B6A019308BD6402030008B5024B07
:1065C0001B685B6A019308BD6402030008B5024BB7
:1065D0001B689B6A019308BD6402030008B5024B67
:1065E0001B681B68019308BD3C02030008B5024B01
:1065F0001B68DB68019308BD3C02030008B5024B31
:106600001B681B69019308BD3C02030008B5024BDF
:106610001B685B69019308BD3C02030008B5024B8F
:106620001B689B69019308BD3C02030008B5024B3F
:106630001B68DB69019308BD3C02030008B5024BEF
:106640001B681B6A019308BD3C02030008B5024B9E
:106650001B689B6A019308BD3C02030008B5024B0E
:106660001B681B6A019308BD2802030008B5024B92
:106670001B685B6A019308BD2802030008B5024B42
:106680001B689B6A019308BD2802030008B5024BF2
:106690001B68DB6A019308BD2802030008B5024BA2
:1066A0001B681B6B019308BD2802030008B5024B51
:1066B0001B685B6B019308BD2802030008B5024B01
:1066C0001B681B6C019308BD2802030008B5024B30
:1066D0001B685B68019308BD3802030008B5024BD4
:1066E0001B689B69019308BD3802030008B5024B83
:1066F0001B68DB69019308BD3802030008B5024B33
:106700001B681B6A019308BD3802030008B5024BE1
:106710001B689B6A019308BD3802030008B5024B51
:106720001B68DB6A019308BD3802030008B5024B01
:106730001B681B6B019308BD3802030008B5024BB0
:106740001B685B6B019308BD3802030008B5024B60
:106750001B689B6B019308BD3802030008B5024B10
:106760001B68DB69019308BD3002030008B5024BCA
:106770001B681B6A019308BD3002030008B5024B79
:106780001B681B68019308BD4C02030008B5024B4F
:106790001B681B69019308BD4C02030008B5024B3E
:1067A0001B685B69019308BD4C02030008B5024BEE
:1067B0001B689B69019308BD4C02030008B5024B9E
:1067C0001B68DB69019308BD4C02030008B5024B4E
:1067D0001B681B6A019308BD4C02030008B5024BFD
:1067E0001B681B6D019308BD6002030008B5024BD6
:1067F0001B685B68019308BD2002030008B5024BCB
:106800001B685B69019308BD2002030008B5024BB9
:106810001B68DB6C019308BD2002030008B5024B26
:106820001B685B6D019308BD2002030008B5034B94
:106830001B68D3F88830019308BD000020020300D4
:1068400008B5034B1B68D3F89430019308BD0000D2
:106850002002030008B5024B1B685B68019308BD6A
:106860004002030008B5024B1B689B68019308BDFA
:106870004002030008B5024B1B68DB68019308BDAA
:106880004002030008B5024B1B681B69019308BD59
:106890004002030008B5024B1B685B69019308BD09
:1068A0004002030008B5024B1B689B69019308BDB9
:1068B0004002030008B5024B1B68DB69019308BD69
:1068C0004002030008B5024B1B681B6A019308BD18
:1068D0004002030008B5024B1B681B6B019308BD07
:1068E0004002030008B5024B1B685B6B019308BDB7
:1068F0004002030008B5024B1B689B68019308BD6A
:106900004402030008B5024B1B685B69019308BD94
:106910004402030008B5024B1B68DB69019308BD04
:106920004402030008B5024B1B681B6A019308BDB3
:106930004402030008B5024B1B685B6A019308BD63
:106940004402030008B5024B1B68DB6B019308BDD2
:106950004402030008B5024B1B681B68019308BD85
:106960001C02030008B5024B1B685B68019308BD5D
:106970001C02030008B5024B1B689B68019308BD0D
:106980001C02030008B5024B1B68DB68019308BDBD
:106990001C02030008B5024B1B68DB6A019308BDAB
:1069A0001C02030008B5024B1B681B6B019308BD5A
:1069B0001C02030008B5024B1B68DB6B019308BD8A
:1069C0001C02030008B5024B1B685B6C019308BDF9
:1069D0001C020300002240681146FFF773BF00222B
:1069E00040681146FFF77EBF40680022FFF772BF84
:1069F0004068002281F00101FFF75CBF002340687E
:106A00001A461946FFF74EBF002340681A4619463A
:106A1000FFF740BF002240681146FFF733BF002256
:106A200040681146FFF71EBF406800220221FFF7B1
:106A300021BF002340681A46FFF70CBF024B032218
:106A40005A60024A1A60704744E6032034BE0D00C3
:106A500010B5044608462170FFF780FE00236360EE
:106A6000204610BD10B50446006818B1FFF77AFF44
:106A70000023236010BD10B50446FFF7F3FF204646
:106A800010BD000010B5094B094C022200201A600D
:106A9000084B2060A080A071A360FFF7A7FE2046EE
:106AA000054A0649BDE8104001F02CBF58E6032016
:106AB0004CE603200000FFFF68E40320776A0D0026
:106AC00010B5044602F0D7FF013823182046834250
:106AD00006D90278197800F8011B03F80129F6E7B6
:106AE00010BD70B50C46911E2229054622D82046BD
:106AF0006DB1B5FBF2F602FB1655E9B2092D94BF54
:106B000030315731C9B200F8011B3546F0E7024673
:106B100023443021934202D902F8011BFAE71A1AE2
:106B2000834238BF0022002383542046FFF7C8FF6A
:106B3000204670BD0020FCE738B5031E0C46154604
:106B40000EDAB3F1004F4FF02D0214BF5842184631
:106B500001230A702A461944FFF7C3FF204638BDB7
:106B60000123F9E710B40468246BA4465DF8044BD4
:106B7000604703689B6C1847808E7047028FC08EF9
:106B8000101A704707B503688DF80710DB680122FB
:106B90000DF10701984703B05DF804FB10B50368D9
:106BA0001B690446984728B1E38EE26B591CE186C5
:106BB000D05C10BD4FF0FF30FBE710B503681B69D8
:106BC0000446984718B1E38EE26BD05C10BD4FF0DD
:106BD000FF30FBE7704710B403460846DC6BD98EE4
:106BE0001A8F0368521ADB6821445DF8044B18477A
:106BF000A0F11000FFF7EFBF70B503688CB05B6ABF
:106C000004460E461546984701231C22002105A87C
:106C1000029302F0C7FE40F61C233046ADF8143054
:106C2000FFF7D4FC1122ADF8160002210A20FFF76D
:106C30008DFD0028606125DB0422009202AB40F646
:106C4000FF71FFF74BFDE8B995B10390ADF8100067
:106C500003A9E8B2FFF77AFCA0B9062300936069A4
:106C600003AB41F20B0240F6FF71FFF737FD48B965
:106C700060691C2205A9FFF729FD18B96564012088
:106C80000CB070BD236820465B6A98470020F7E788
:106C900010B504464069002801DBFFF727FD4FF0DF
:106CA000FF3363610023E386238710BD70B505467B
:106CB000C06BEE8E68B12B6C9C1B944228BF1446AF
:106CC0002246304402F060FEEB8E2344EB862046E1
:106CD00070BD0446F1E7D0B503681B6904460F4652
:106CE0001646984790B1236820461B699847E38E63
:106CF000E16B8642A8BF064619443246384602F088
:106D000043FEE38E3344E3863046D0BD4FF0FF367A
:106D1000FAE7000070B50446054B44F8043B01F166
:106D2000200506460FCD0FC42B682370304670BD7A
:106D30001CBF0D00F0B59646026889B0976A0A4AF2
:106D400002921C1D8C4606460FCC03AD0FC523686E
:106D50002B70BDF838300093724602AB6146304666
:106D6000B84709B0F0BD00BF1CBF0D00F0B5036807
:106D700089B09F6A0C4B029300F1200604460FCEA7
:106D800003AD0FC533682B70A38EE28EE16B0093C9
:106D9000204602ABB84723680546DB692046984782
:106DA000284609B0F0BD00BF1CBF0D00F0B5437808
:106DB000022B8DB005460C46174604D1011D204616
:106DC00000F08AFF22E00A2B25D11122002101A820
:106DD00002F0E8FDAB6803B305F1080301AE05F16D
:106DE000180C18685968324603C2083363451646C2
:106DF000F7D1062301A906A807AE8DF8143000F0DC
:106E000029FF0FCE04340FC4336823701FB1688884
:106E1000FFF7D4FB38800DB0F0BDEB68002BDBD161
:106E20004FF6FF702E69FFF7C1FB8642D4D105F102
:106E30001401C4E72DE9F04117468EB00022064642
:106E400001AB084611460192FFF730FB041E20DB20
:106E5000019B2BB35B691BB302A800F0EDFE019B05
:106E60000022586902A9FFF7A1FF02A800F004FF61
:106E7000B0B1336803ADD3F838800B4B08930FCD16
:106E800009AC0FC42B6823703A4608A93046C047A6
:106E900004460198FFF702FB20460EB0BDE8F081E2
:106EA0004FF0FF34F5E700BF1CBF0D002DE9F047A0
:106EB000D0F81490B9F1000F90B005460E469046F8
:106EC0001C463CDB00293AD04FF01C0A09AF524661
:106ED0000021384602F066FDCDF80CA0DCB100229E
:106EE0004FF47A70B4FBF0F3CDE9043200FB1343A6
:106EF0005843102307920690009341F206026B4418
:106F000040F6FF714846FFF7E9FB044620B12046F2
:106F100010B0BDE8F087082403ABCDE900736869C1
:106F2000234642463146FFF7F9FB041EEFDB05F12D
:106F3000340205F11C013846FFF738FFE7E74FF050
:106F4000FF34E4E738B5054614462B7D062B08468A
:106F500010D140F61C231380FFF738FB08342B1D9B
:106F600024F8060C143553F8042B44F8042BAB42D8
:106F7000F9D138BD042BFCD14FF404731380FFF713
:106F800025FB60806868FFF711FB6060F1E72DE981
:106F9000F0438BB003AF4FF01C09984604460D46F2
:106FA000164600214A46384602F0FCFCBDF848105F
:106FB0003A464046FFF7C6FF9DF80D3053B1CDE984
:106FC00000796069002332462946FFF7B7FB0BB012
:106FD000BDE8F0834FF0FF30F9E7000038B5002539
:106FE0004FF47A73C0E901530B4B03F108026C3381
:106FF00003614FF0FF330446026043611C3000F030
:107000001BFE4FF40073C4E91035E5862587E56360
:1070100084F84850204638BD60BE0D0010B590F889
:107020004830044623B1C06B10B1012101F06FFC60
:107030000023E36384F848302364E386238710BD8C
:1070400070B5044616460D46FFF7E8FF0023E663D9
:1070500023642EB12564206C003818BF012070BD58
:10706000002DF8D02846FDF718F80123E06384F8D6
:1070700048300028EFD0EDE7F8B51746C26B05465B
:107080000C461AB9016C09B1FFF7DAFF04340FCCD2
:1070900005F120060FC6236833700023286CAF86E5
:1070A000EB862B87F8BD37B5C26B04460B462AB971
:1070B000016C19B10193FFF7C3FF019BE16B002243
:1070C000E286228741B1226C32B12068056B2046EE
:1070D000A8470028C8BF208723681B69204603B043
:1070E000BDE83040184700002DE9F04757EC106B21
:1070F00080460C4610EE100A00220023394602F0AA
:10710000FFF928B107F100431F462D2304F8013B86
:1071100000234FF001090A22D9B2884503D902FBA6
:1071200009F90133F8E7484601F00EFF32463B46C5
:1071300001F074FF06460F4602F092FA05468A46B1
:1071400001F036FF02460B463046394601F0AEFDEF
:10715000134B002202F0E8F910B101354AF1000AA0
:107160004A462846D317514602F062FA01231546D3
:1071700021460A22FFF7B5FCB8F1000F0DD02046DA
:1071800002F079FC2E23211823540A224346284674
:107190000131BDE8F047FFF7A4BCBDE8F08700BFB0
:1071A0000000E03F10B504460068FFF7DBFB204617
:1071B00010BD10B50446006808B1FFF7D3FB0023EB
:1071C000C4E90133236010BD38B504460D4600689C
:1071D0000131FFF7CFFB10B1C4E90005012038BD34
:1071E00010B50368044623B143688B4201D30120E4
:1071F00010BD2046FFF7E8FF0028F9D0A368002B58
:10720000F5D122681370F2E737B50D4611460192A9
:107210000446FFF7E5FF019A28B92046FFF7C9FFAA
:10722000204603B030BDA2602946206802F0ACFBC6
:107230002268A3680021D154F2E7002313B5C0E906
:10724000003304468360037341B10846019102F0A4
:1072500012FC019902462046FFF7D6FF204602B0F5
:1072600010BD884210B5044605D00B682BB18A6862
:107270001946FFF7C9FF204610BDFFF79AFFFAE74E
:1072800010B500230446C0E9003383600373FFF7A1
:10729000E8FF204610BD13B5044659B108460191D8
:1072A00002F0E9FB019902462046FFF7ADFF2046B8
:1072B00002B010BDFFF77DFFF9E710B504468AB0B4
:1072C0000023C4E90033A3602373084601A9FFF734
:1072D00033FC01A92046FFF7DEFF20460AB010BDAF
:1072E00030B5044600238BB0C4E90033A360237398
:1072F00010EE100ACDB201F039FE41EC100B01A9DD
:107300002846FFF7F1FE01A92046FFF7C4FF2046FB
:107310000BB030BD70B505460E4609B9002070BDF2
:107320006AB1846814442146FFF75AFF0028F5D05B
:107330002868AB683146184402F077FBAC60012046
:10734000EDE710B58A6809680446FFF7E3FF10B956
:107350002046FFF72EFF204610BD13B5044629B97D
:107360002046FFF726FF204602B010BD08460191D7
:1073700002F081FB019902462046FFF7CBFF00286F
:10738000EED0F0E708B582683AB921B10878B0FAD2
:1073900080F0400900E0012008BD006809B90078CC
:1073A000F5E702F038FBF2E710B5036804469B6886
:1073B0009847A368013BA3602BB923682046DB688C
:1073C000BDE81040184710BD10B50446006808B16C
:1073D000FFF7DCF8204610BD0B68036013B15A6854
:1073E00001325A60704710B50446006828B14368FE
:1073F000013B43600BB9FFF7D7FF204610BD0000EB
:1074000010B5064C002320462360FFF7B7F820464E
:10741000034A0449BDE8104001F074BA5CE6032059
:1074200068E40320C9730D00F8B506460D468F18B1
:107430000024BD420CD0336815F8011B9B68304610
:107440009847031E01DB1C44F3E7002C08BF1C46D1
:107450002046F8BD13B50446084659B1019102F023
:107460000AFB23680199DB680246204602B0BDE8AA
:107470001040184702B010BD08B5FFF7EBFF08BD7C
:1074800003689B68184738B50D210546FFF7F8FFDC
:107490000A2104462846FFF7F3FF204438BD38B5DB
:1074A0000546FFF7D7FF04462846FFF7ECFF2044C8
:1074B00038BD30B58BB000238DF82430012A98BF39
:1074C0000A2209AC0D46B1FBF2F101FB125303F0A5
:1074D000FF03092B94BF30333733DBB2AA4204F8E1
:1074E000013DEFD92146FFF7B5FF0BB030BD0000DD
:1074F000014B024A1A60704760E60320D8BE0D00B7
:10750000024B1A68024B1A60704700BF90E20320DA
:1075100064E603200021FFF771B910B50446FEF7B9
:107520003BFD204610BD13B50B460246D0E90001D5
:107530006C4684E8030093E8030082E8030094E8C3
:10754000030083E8030002B010BD00000348044AB2
:1075500004490023836001F0D5B900BF68E6032029
:1075600068E403201B750D00014B1860704700BFD5
:1075700094E2032008B50B4B43B100F011FC036803
:107580001B699847002801DDAFF30080064B43B12B
:1075900000F0B0FC03681B699847002801DDAFF3D9
:1075A000008008BD000000000000000008B5FFF7E3
:1075B000E1FFFEF7DBFF014B186008BDD4E70320B5
:1075C0000248034A0349121A02F0DEB900F403200C
:1075D00004F4032048C40D0007B5002300931A46A5
:1075E0006FF07701FFF72CF903B05DF804FB0000A2
:1075F00007B543880A2B08D0502B0BD1094B1B68C9
:107600004BB103B05DF804EB1847FFF7E5FF03B09B
:107610005DF804FB002300931A466FF07701FFF733
:107620000FF9F4E77CE6032038B5124C1248134DED
:107630000021FFF7C7F92368AB42114B0CBF0122B1
:1076400000221A7002D0FFF7BBFF2560FEF786FF0D
:10765000044602F0AFF90B4B13B12046AFF30080A4
:1076600000210848FFF76EF9BDE8384006480021C0
:10767000FFF7DCB800F4032069750D001E1C279A83
:1076800078E6032000000000F1750D00704700202F
:10769000704710B51021044601F039F9204610BD9D
:1076A00008B5FFF7F6FF08BD30B500224FF69C7411
:1076B000026084808D888C800C68858004600A60FC
:1076C00030BD10B504460068FFF74CF9204610BDE8
:1076D00038B5C468F4B12378022B03D104F10C004F
:1076E000FFF7EFFF656835B12846FEF755FC10211E
:1076F000284601F00CF9A56835B12846FEF74CFC88
:107700001021284601F003F920461421BDE8384035
:1077100001F0FDB838BD73B50E46044656F8043B7B
:1077200000930D4601A83146FFF756FE019A009BD3
:107730006260236001A8002301930093FFF753FECA
:107740003046FFF750FE2846082101F0E0F82046B9
:1077500002B070BD826810B50AB901F08EF9BDE8BB
:107760001040C368184708B5006800F11001FFF722
:10777000F1FF08BD826810B50AB901F07EF9BDE8D5
:107780001040C368184708B5006800F11001FFF702
:10779000F1FF08BD38B500230446036010200D46F4
:1077A000FCF779FC28B10123C0E90133024B0360E7
:1077B000C5602060204638BD00BF0D0038B50023ED
:1077C00083608B6804460D462BB102229847EB6814
:1077D000E360AB68A360204638BD0000F0B589B017
:1077E00004686846FFF760FF4FF00203D4E84F2FAC
:1077F000002A03D1C4E8413F0029F7D125D104F183
:107800000C0569462846FFF74FFFBFF35B8F012346
:107810006370002004F10803BFF35B8F53E8006F2F
:1078200043E80002002AF9D1BFF35B8F6EB1FEF787
:10783000EDFF78B129463046FFF78CFF3046FEF762
:10784000ABFB1021304601F062F86846FFF739FFC4
:1078500009B0F0BD314602A8FFF7B0FFE068B4F907
:10786000105008B102F0EAF806901020ADF81C5054
:10787000FCF711FC0546E8B1002787601820FCF7EB
:107880000AFC044688B10146876002A8FFF74BFE58
:10789000049BA268A360059B049206A9E268E360CA
:1078A00004F110000592FFF7FFFE084BEB60084B58
:1078B0002C60AB6006A8FFF704FF02A8FEF76CFB84
:1078C000002229460348FEF7A9FFB7E767770D00B6
:1078D000FD790D00497F0D002DE9F0478AB005467E
:1078E0009DF848900C4617469846FFF70BF807AEF0
:1078F000824638BB4FF62E73059005A93046ADF889
:107900001830FFF7D1FE1420FCF7C5FB044648B140
:10791000022303700123C0E901AA437031460C30F1
:10792000FFF7C2FE2846214640F8044BFFF732FF1E
:107930003046FFF7C6FE05A8FFF7C3FE28460AB08B
:10794000BDE8F0870C234FF0000A1420CDE908AA07
:107950000793FCF7A0FB014628B1C0E901AA80F813
:1079600000A080F801A004A80391FFF713FF224BA9
:1079700008930820FCF78FFB824628B1039B40F850
:10798000043B04A9FFF728FD00965FFA89F34246FD
:1079900039462046CDF824A0FEF7C4FFB8B9039BB2
:1079A0005B7803F0FF0293B94FF69C7305A903A817
:1079B0000592ADF81830FFF711FF05A8FFF781FE1B
:1079C00005A80999FFF7A7FE06A8FFF70CFD039B82
:1079D000059304A906A8FFF7FFFC059B069A2B60F8
:1079E0006A60002306A806930593FFF7FCFC04A831
:1079F000FFF7F9FCA2E700BFC17A0D00022AF8B533
:107A0000054607D0032A18D0012A01D10B6803606C
:107A10000020F8BD18200E68FCF73DFB044650B16D
:107A20003146FFF7CBFE3069B6F9147008B102F0A9
:107A300005F82061A7822C60EAE70468002CE7D0F3
:107A400004F11000FFF73DFE2046FEF7A5FA1821CD
:107A5000204600F05CFFDBE738B5002383608B68CD
:107A600004460D462BB102229847EB68E360AB68F1
:107A7000A360204638BD022A70B5044607D0032A09
:107A800012D0012A01D10B680360002070BD1420C0
:107A90000E68FCF700FB054620B13146FFF7DCFF1E
:107AA000337C2B742560F0E70468002CEDD0204671
:107AB000FEF772FA1421204600F029FFE5E70000E6
:107AC000F0B589B004460D4601A81146FFF723FE24
:107AD000A4B124B21DB1284601F0B0FF054601A8AB
:107AE00003A90395ADF81040FFF778FE03A8FFF750
:107AF000E8FD02A8FFF777FC09B0F0BD019D012366
:107B0000D5E84F2F002A03D1C5E8413F0029F7D11E
:107B1000EFD12B73BFF35B8F6B702B1DBFF35B8FAC
:107B200053E8006F43E80042002AF9D1BFF35B8FAE
:107B3000002EDED02046FEF769FE074660B105F153
:107B40000C013046FFF716FE3046FEF725FA1021ED
:107B5000304600F0DCFECCE7314603A8FFF77CFF9F
:107B60002B7B8DF81C301020FCF795FA0546D0B120
:107B700087601420FCF78FFA044678B187600146CD
:107B800003A8FFF7D0FC059BA268A360069B0592A3
:107B9000E268E3609DF81C3006922374064BEB60AC
:107BA000064B2C60AB6003A8FEF7F6F900222946CD
:107BB0000348FEF733FEC7E787770D00777A0D009D
:107BC000497F0D00704710B51821044600F09FFE54
:107BD000204610BDF0B5037D062B8DB00E4600F19A
:107BE00004074FF0000412D000F1080515F8011D3C
:107BF0000A223046FFF75DFCAF42044419D0002C46
:107C0000F4D02E213046FFF73BFC0444EEE72F234F
:107C10006A4639460A208DF80040FEF7BFFC6846E8
:107C200001F029FF33680246DB6869463046984711
:107C3000044620460DB0F0BD10B5054B0446112298
:107C400040F8043B002101F0ADFE204610BD00BF0E
:107C50001CBF0D000346074A10B543F8042B01F181
:107C6000100251F8044B43F8044B9142F9D10A78C1
:107C70001A7010BD1CBF0D00037D042B04D1406899
:107C8000003818BF01207047062B07D143683BB965
:107C900083682BB9C3681BB90069F1E700207047FE
:107CA0000120704710B59DF8084044EA032343EAD9
:107CB000024242EA016104234160037510BD0000E5
:107CC00037B5044D05609DF818500095FFF7EAFFA1
:107CD00003B030BD1CBF0D0013B5CB7800938B787B
:107CE0004A780978FFF7DEFF02B010BD4174704793
:107CF000704708B50021007CFEF758FD40EAE070AF
:107D000008BD08B50121007CFEF750FD40EAE07097
:107D100008BD08B5007CFEF741FD20EAE07008BD13
:107D200008B5007CFEF732FD20EAE07008BD13B50F
:107D30000446007C0191FEF731FD0028019901DC29
:107D4000607C20B1207CFEF739FD20EAE07002B0B3
:107D500010BD007CFEF73ABD10B51421044600F0BA
:107D6000D6FD204610BD000010B54FF47A730446CE
:107D700008460021C4E90113044B23600123207449
:107D800063741146FEF7FAFC204610BD30BF0D00AB
:107D900010B514220446002101F004FE204610BD57
:107DA00010B5104C88B003A8FFF7F2FF2178BFF39D
:107DB0005B8F11F0010111D120460191FCF773F99D
:107DC000019958B103AA0848FFF7CEFF2046FCF7F7
:107DD0006FF9064A0649044800F094FD024808B0CD
:107DE00010BD00BF80E6032084E6032068E4032082
:107DF000F17C0D00004700002DE9FF4100241D46E5
:107E00000F4690460646FEF789FBA5424FF0040355
:107E1000ADF80D408DF80C308DF80F40A2BF9DF8E5
:107E200028308DF80E3003AC0749009443463A469B
:107E30003046A8BF8DF80D50FEF768FBB0FA80F011
:107E4000400904B0BDE8F081F57D0D007047417434
:107E5000704708B5007CFEF7F9FB20EAE07008BD2A
:107E600008B5007CFEF7CAFB20EAE07008BD08B543
:107E7000007CFEF7D3FB40EAE07008BD08B5007C4B
:107E8000FEF7C4FB40EAE07008BD007CFEF7CEBB05
:107E900037B5457C04462DB1207C03B0BDE83040A9
:107EA000FEF7A4BB007C0191FEF7D0FB00280199EE
:107EB000F2DC284603B030BD10B51421044600F0B2
:107EC00026FD204610BD000010B54FF0000C044602
:107ED000084611464FF47A72C4E901C2044A22608E
:107EE0000122207462741A46FEF778FB204610BD0A
:107EF00060BF0D0013B50E4C2178BFF35B8F11F0FE
:107F0000010112D120460191FCF7CDF8019960B131
:107F1000084A094B0948FFF7D7FF2046FCF7C8F885
:107F2000074A0849054800F0EDFC044802B010BDBE
:107F300098E603209CE6032020E70320A4E7032023
:107F400068E403204D7E0D0010B5836804460BB92C
:107F500000F093FDC3689847A3681BB10322214634
:107F60002046984720461021BDE8104000F0CFBCC5
:107F70007047F8B5064615460C468F18BC4206D029
:107F8000336814F8011B9B6830469847F6E728468B
:107F9000F8BD007C0022FEF761BB007C0021FEF7EB
:107FA00065BB007C0021FEF769BB007C0021FEF769
:107FB0006DBB007C0021FEF771BB10B51421044697
:107FC00000F0A5FC204610BD10B54FF47A730446AE
:107FD00008460021C4E90113034B236020741146B5
:107FE000FEF76CFB204610BD90BF0D0013B5036873
:107FF0008DF80710DC6B01224FF0FF330DF1070104
:10800000A04702B010BD10B40368DC6B4FF0FF3323
:10801000A4465DF8044B604713B5134602688DF81B
:108020000710D46B0DF107010122A04702B010BD6B
:10803000704738B543691A68002A054610DAB3F864
:108040008620B3F884309A420AD103681B699847A6
:10805000044628B92B682846DB6A9847204638BD75
:108060000120FCE743691868C043C00F70477047A0
:10807000064B994210B500F10C0405D0084600F0FB
:10808000FFFC002808BF0024204610BDD0BE0D0014
:1080900010B5AC21044600F03AFC204610BDFBF7B9
:1080A000FEBF2DE9F0414FF0000886B01D46C0F834
:1080B000048004460E4617464146102202A801F0ED
:1080C00071FC6B1C09D04FF47A70B5FBF0F3CDE96D
:1080D000023800FB13535843049060691023009347
:1080E000006802AB41F2050240F6FF71FEF7F6FAB6
:1080F000002807DAFEF75EFC03686360002006B024
:10810000BDE8F0816069002300683A463146FEF719
:108110000DFB031EEEDB1846F1E7000070B54D695C
:10812000054B04468C3544F8043B06460FCD0FC47E
:108130002B682370304670BD1CBF0D0010B543691D
:10814000B3F88620B3F884309A42044605D06369B8
:10815000B3F884201344187910BD03681B6998474D
:108160000028F4D14FF0FF30F6E710B54369B3F8BB
:108170008620B3F884309A42044608D06369B3F885
:108180008420511CA3F884101344187910BD03688F
:108190001B6998470028F1D14FF0FF30F6E7F8B59A
:1081A00043691746B3F88620B3F884309A420546EF
:1081B0000E4616D06969B1F88430B1F88640E41AE9
:1081C000BC4228BF3C46043322461944304601F0E5
:1081D000DBFB6A69B2F884302344A2F8843020467D
:1081E000F8BD03681B6998470028E3D14FF0FF34BE
:1081F000F5E700002DE9F0439846036893B00D467B
:108200000024DB6A06461746984728466B462246F6
:1082100021460094FEF74AF90546002863D1009BE9
:10822000002B4BD05B69002B48D006A8FFF704FD5C
:10823000009B5C696378022B04D1211D06A8FFF71F
:108240004BFD26E00A2B24D11122294601A801F07A
:10825000A9FBA368002B38D004F108030DF1040C2E
:10826000183418685968624603C20833A34294461A
:10827000F7D1062301A90CA88DF81430FFF7EAFC0A
:108280000DF1340CBCE80F0007AC0FC4DCF8003073
:10829000237006A8FFF7F0FC80B1336807ADD3F870
:1082A0002090124B0C930FCD0DAC0FC42B68237094
:1082B0003A4643460CA93046C84705460098FEF7A3
:1082C000EDF8284613B0BDE8F083E368002BC3D176
:1082D0004FF6FF70D4F81090FEF768F98145BBD1D6
:1082E00004F11401AAE72546E8E700BF1CBF0D0012
:1082F00042690023A2F884304269A2F886307047B0
:108300002DE9F0411F4603680C46DB6A8AB005463A
:1083100016469847237DD5F81480042B0CBF022005
:108320000A2006220121FEF711FAC8F800006B6945
:108330001B68002B08DA2B682846DB6A0024984764
:1083400020460AB0BDE8F0812846FFF7D1FFB7B15B
:10835000002303A9F8B20393ADF81030FEF7F6F846
:108360000028E8D1686906230093006803AB41F256
:108370000B0240F6FF71FEF7B1F90028DBD11C2299
:10838000002103A801F00EFB237D042B1DD14FF427
:1083900007733046ADF80C30FEF718F9ADF80E0053
:1083A0006068FEF703F904906B691C22186803A942
:1083B000FEF7A4F90028BED104340FCC6D698C35CA
:1083C0000FC523682B700124BAE740F61C23304602
:1083D000ADF80C30FEF7FAF805AEADF80E00231D2F
:1083E00004F1140718685968324603C20833BB42C7
:1083F0001646F7D1D8E7000030B54269B2F88630AA
:108400008BB004462BB1B2F884209A4201D1FFF719
:108410006FFF61690868002818DBB1F886507F2D6E
:1084200014D804310823C5F180022944FEF76EF9FF
:10843000002813DD6369B3F886200AB9A3F8842005
:108440006369B3F886201044A3F886006369B3F823
:108450008600B3F88430C01A0BB030BDFEF7AAFA1C
:1084600003680B2BF2D0FEF7A5FA03680B2BEDD0B7
:1084700020230025CDE90235FEF79CFA036801931D
:10848000084B0949009302AA2B463220FEF7A6F9B1
:1084900063691868FEF72AF963694FF0FF321A60C2
:1084A000D4E700BFB7BF0D00B0BF0D0010B54369E2
:1084B00004461868002801DBFEF718F963694FF0DD
:1084C000FF321A606069112200218C3001F06AFAD3
:1084D0002046BDE81040FFF70BBF43691868C04352
:1084E000C00F704710B5002304460160C0F8843007
:1084F0008830FFF7A1FB204610BD000073B50023B4
:108500004FF47A72C0E901320E4A0361026043619E
:108510000446AC200191FBF7BEFD051E05F10C06DB
:1085200008D00123C5E90133074B01992B60304680
:10853000FFF7D8FF2046C4E90565FFF7D9FE02B072
:1085400070BD00BFECBF0D00D0BF0D0010B54FF0E7
:10855000FF310446FFF7D2FF204610BD10B5044698
:108560000068002801DBFEF7C1F8204610BD0C3082
:10857000FFF7F4BF002240681146FEF783B90022DE
:1085800040681146FEF79EB9002240681146FEF78A
:10859000A9B940680022FEF79DB94068002281F029
:1085A0000101FEF787B9002340681A461946FEF715
:1085B00079B9002340681A461946FEF76BB90022C4
:1085C00040681146FEF74EB9406800220221FEF7CE
:1085D00051B9002340681A46FEF73CB9024B042209
:1085E0005A60024A1A607047B8E7032038C00D008D
:1085F000002340681A46FEF72DB940680022022188
:10860000FEF738B9002240681146FEF72BB9002268
:1086100040681146FEF736B9002340681A461946ED
:10862000FEF738B9002340681A461946FEF73AB9F2
:108630004068002281F00101FEF73CB94068002249
:10864000FEF748B9002240681146FEF74BB90022F8
:1086500040681146FEF736B92DE9F043002495B085
:1086600016460D460746FFF7E7FA214618220EA8E0
:10867000009401F097F94023CDE90C3421466B4674
:108680000CAA3046FDF712FF0446002846D10246E8
:1086900001216868FEF7F6F80221804622466868E4
:1086A000FEF7F0F8009E81462146002E36D00029C4
:1086B00034D17368022B03D00A2B0BD0F669F4E790
:1086C000B8F1000F04D0716938460431FFF704FB9C
:1086D0004146F3E7B9F1000F01D14946EEE774696D
:1086E000102201A801F05EF906238DF8143001ADC7
:1086F00004F108031834186859682A4603C208337D
:10870000A3421546F7D101A906A807ADFFF7A2FAC3
:108710000FCD3C1D0FC42B682370DEE70098FDF7DA
:10872000BDFE384615B0BDE8F0830000024B034A99
:108730001A6000225A607047C0E703206CC00D0029
:10874000232813B502D9002002B010BDA0F10B03FD
:10875000022B1AD8174C2178BFF35B8F11F001015F
:108760000BD120460191FBF79EFC019928B11248DC
:10877000FEF76EF92046FBF79BFC0F4B1878FDF7D0
:10878000F5FF0028DFD10120DEE7012809D800F03D
:1087900091F80021007CFDF789FF80F00100C0B254
:1087A000D2E709380128EED8FFF7A4FB007CFDF7DB
:1087B00045FFF2E7C8E70320CCE70320232838B5BC
:1087C00004460D460AD8FF2908D0FFF7B9FF28B1A3
:1087D00029462046BDE83840FDF778BE38BD38B59B
:1087E00004460D46FDF77AFEFF2810D0062804D86F
:1087F0004D2323FA00F0C30709D42046FFF7A0FF5A
:1088000028B129462046BDE83840FDF76FBE38BD87
:1088100010B50446FDF762FE031FDBB2012B08D939
:108820002046FFF78DFF20B12046BDE81040FDF740
:1088300065BE002010BD38B504460D46FFF780FF29
:10884000F0B104212046FDF739FE042805D1A9B274
:108850002046BDE83840FDF769BE02212046FDF7FD
:108860002DFE02280CD12046FDF738FE012801D04C
:10887000042805D129462046BDE83840FDF75EBEF4
:1088800038BD000038B5002320254380142304465A
:108890000380856005610649284600F03AF80449DE
:1088A0006060284600F035F8E060204638BD00BF23
:1088B00098C00D0030B50F4D2978BFF35B8F11F0D4
:1088C000010487B013D12846FBF7EDFB78B101A86E
:1088D000FFF7D8FF01AA21460748FFF775FB284696
:1088E000FBF7E6FB054A0649034800F00BF802488F
:1088F00007B030BDD8E70320DCE7032068E403209D
:10890000717F0D000B460146184601F02FB8FBF7AA
:10891000C6BBFBF7C2BBC3689A68C26010B502B1A0
:10892000506042685A600C68844203D10B609860C2
:10893000436010BD916881420CBF9360D360F6E73D
:108940008368DA68826010B502B1506042685A608C
:108950000C68844203D10B60D860436010BDD168BD
:1089600081420CBFD3609360F6E7037833B9436864
:108970005B68834202D1DB6818467047826822B187
:108980001346D268002AFBD1F6E743689A68824210
:10899000F2D118465B68F9E7C36823B118469B68B3
:1089A000002BFBD170474368DA68824202D1184637
:1089B0005B68F9E7C268934218BF18467047FFF733
:1089C000D4BF2DE9F8431E4603F104080023C1E992
:1089D00002330C464A600B7000B39642916018D186
:1089E0007160F46001274FF000097368A3423FD023
:1089F00060680278002A3CD14568AB68984223D170
:108A0000EB6883B11A7872B907701F702A702C4610
:108A1000EBE7B3689342E5D1B160E3E7D160F36877
:108A20009342DFD1DDE7C368A34203D14146FFF79C
:108A300072FF0446636841461F70284685F800901F
:108A4000FFF77EFF2546E2E713B11A78002ADBD054
:108A50008368A34203D14146FFF772FF044663686F
:108A600041461F70284685F80090FFF754FFE9E75C
:108A7000234601221A70BDE8F88308B5FDF78AFF86
:108A8000014900F0F9B800BFB4C00D007FB5002463
:108A90001023CDE90234036800949E698DF80440E8
:108AA00015466B461268B0479DF8043003F0060384
:108AB000062B03BF009B2B600120204604B070BD35
:108AC0000098904214BF01200620704710B5034B58
:108AD0000360044600F0CDF8204610BDF4C00D0040
:108AE00010B50446FFF7F2FF20460821FFF70FFFFD
:108AF000204610BD2DE9F0411F46DDE90834DDF8C0
:108B0000188098450646154607D1079900F0B4F835
:108B100018B165710020BDE8F0813946304600F09B
:108B2000ABF80028F6D00123C4F800802571A371AA
:108B3000F0E738B515461C4600F09EF820B1082332
:108B4000E36006232560237138BD73B505460C46E6
:108B500001921E4600F090F850B9032E08D8236801
:108B6000019A5B692946204602B0BDE8704018476B
:108B700002B070BD10B5034B03600446FFF7A6FFBB
:108B8000204610BD54C10D0010B50446FFF7F2FF9A
:108B900020460C21FFF7BBFE204610BDF7B5089F0D
:108BA000974205460E4614460AD0A8680268089700
:108BB000156A31462246AC4603B0BDE8F040604736
:108BC0001946019300F058F8019B0028EDD00620CB
:108BD00003B0F0BD2DE9F14F0D461946DDE90A4B12
:108BE000DDE90CA681461746984600F045F890B19D
:108BF000002D3460377109DB61198A450CBF0621ED
:108C00000121B171002001B0BDE8F08F0235F9D12A
:108C10000123B371F6E7544506D15946484600F0A2
:108C20002BF808B17771EDE7D9F808000368CDE9B2
:108C30000CA6CDE90A4BDC693A4643462946A446D0
:108C400001B0BDE8F04F60472DE9F04107460C4602
:108C500015461E46FFF76DFF48B9B86803689F695F
:108C60002A4633462146BC46BDE8F0416047BDE890
:108C7000F081704700207047814208B50ED04068EF
:108C800003782A2B0CD049680B782A2B08BF0131B6
:108C900000F0C1FEB0FA80F0400908BD0120FCE7F9
:108CA0000020FAE781F0004102E000BF83F00043BA
:108CB00030B54FEA41044FEA430594EA050F08BF77
:108CC00090EA020F1FBF54EA000C55EA020C7FEA3B
:108CD000645C7FEA655C00F0E2804FEA5454D4EBB8
:108CE0005555B8BF6D420CDD2C4480EA020281EA82
:108CF000030382EA000083EA010180EA020281EABA
:108D00000303362D88BF30BD11F0004F4FEA01310B
:108D10004FF4801C4CEA113102D0404261EB41011A
:108D200013F0004F4FEA03334CEA133302D05242A0
:108D300063EB430394EA050F00F0A780A4F101045C
:108D4000D5F1200E0DDB02FA0EFC22FA05F2801896
:108D500041F1000103FA0EF2801843FA05F359417C
:108D60000EE0A5F120050EF1200E012A03FA0EFCFB
:108D700028BF4CF0020C43FA05F3C01851EBE37125
:108D800001F0004507D54FF0000EDCF1000C7EEB42
:108D900000006EEB0101B1F5801F1BD3B1F5001F80
:108DA0000CD349085FEA30004FEA3C0C04F101049F
:108DB0004FEA445212F5800F80F09A80BCF1004FC8
:108DC00008BF5FEA500C50F1000041EB045141EA4A
:108DD000050130BD5FEA4C0C404141EB0101013C13
:108DE00028BFB1F5801FE9D291F0000F04BF014602
:108DF0000020B1FA81F308BF2033A3F10B03B3F1D4
:108E000020020CDA0C3208DD02F1140CC2F10C0263
:108E100001FA0CF021FA02F10CE002F11402D8BFC1
:108E2000C2F1200C01FA02F120FA0CFCDCBF41EA8D
:108E30000C019040E41AA2BF01EB0451294330BD5C
:108E40006FEA04041F3C1CDA0C340EDC04F1140439
:108E5000C4F1200220FA04F001FA02F340EA030010
:108E600021FA04F345EA030130BDC4F10C04C4F156
:108E7000200220FA02F001FA04F340EA0300294636
:108E800030BD21FA04F0294630BD94F0000F83F480
:108E9000801306BF81F480110134013D4EE77FEA63
:108EA000645C18BF7FEA655C29D094EA050F08BFAF
:108EB00090EA020F05D054EA000C04BF1946104690
:108EC00030BD91EA030F1EBF0021002030BD5FEAD4
:108ED000545C05D14000494128BF41F0004130BDFC
:108EE00014F580043CBF01F5801130BD01F0004550
:108EF00045F0FE4141F470014FF0000030BD7FEAC3
:108F0000645C1ABF194610467FEA655C1CBF0B46BD
:108F1000024650EA013406BF52EA033591EA030FD4
:108F200041F4002130BD00BF90F0000F04BF0021CC
:108F3000704730B54FF4806404F132044FF00005FF
:108F40004FF0000150E700BF90F0000F04BF002178
:108F5000704730B54FF4806404F1320410F00045DE
:108F600048BF40424FF000013EE700BF42004FEAD9
:108F7000E2014FEA31014FEA02701FBF12F07F4356
:108F800093F07F4F81F06051704732F07F4208BF0D
:108F9000704793F07F4F04BF41F40021704730B514
:108FA0004FF4607401F0004521F000411CE700BF60
:108FB00050EA010208BF704730B54FF000050AE0E3
:108FC00050EA010208BF704730B511F0004502D5E4
:108FD000404261EB41014FF4806404F132045FEAE6
:108FE000915C3FF4D8AE4FF003025FEADC0C18BF8F
:108FF00003325FEADC0C18BF033202EBDC02C2F181
:10900000200300FA03FC20FA02F001FA03FE40EA12
:109010000E0021FA02F11444BDE600BF70B54FF016
:10902000FF0C4CF4E06C1CEA11541DBF1CEA1355F4
:1090300094EA0C0F95EA0C0F00F0DEF82C4481EA5C
:10904000030621EA4C5123EA4C5350EA013518BF7C
:1090500052EA033541F4801143F4801338D0A0FB69
:1090600002CE4FF00005E1FB02E506F00042E0FB16
:1090700003E54FF00006E1FB03569CF0000F18BF1C
:109080004EF0010EA4F1FF04B6F5007F64F54074C4
:1090900004D25FEA4E0E6D4146EB060642EAC62157
:1090A00041EA55514FEAC52040EA5E504FEACE2EC4
:1090B000B4F1FD0C88BFBCF5E06F1ED8BEF1004FC7
:1090C00008BF5FEA500E50F1000041EB045170BD43
:1090D00006F0004646EA010140EA020081EA030187
:1090E000B4EB5C04C2BFD4EB0C0541EA045170BD83
:1090F00041F480114FF0000E013C00F3AB8014F1FD
:10910000360FDEBF002001F0004170BDC4F1000445
:10911000203C35DA0C341BDC04F11404C4F12005C6
:1091200000FA05F320FA04F001FA05F240EA020021
:1091300001F0004221F0004110EBD37021FA04F657
:1091400042EB06015EEA430E08BF20EAD37070BD11
:10915000C4F10C04C4F1200500FA04F320FA05F070
:1091600001FA04F240EA020001F0004110EBD37072
:1091700041F100015EEA430E08BF20EAD37070BDE2
:10918000C4F1200500FA05F24EEA020E20FA04F3BB
:1091900001FA05F243EA020321FA04F001F000416A
:1091A00021FA04F220EA020000EBD3705EEA430EDB
:1091B00008BF20EAD37070BD94F0000F0FD101F00A
:1091C0000046400041EB010111F4801F08BF013C43
:1091D000F7D041EA060195F0000F18BF704703F081
:1091E0000046520043EB030313F4801F08BF013D08
:1091F000F7D043EA0603704794EA0C0F0CEA1355C4
:1092000018BF95EA0C0F0CD050EA410618BF52EA7D
:109210004306D1D181EA030101F000414FF0000083
:1092200070BD50EA410606BF1046194652EA430691
:1092300019D094EA0C0F02D150EA013613D195EA05
:109240000C0F05D152EA03361CBF104619460AD14D
:1092500081EA030101F0004141F0FE4141F4700157
:109260004FF0000070BD41F0FE4141F4780170BD47
:1092700070B54FF0FF0C4CF4E06C1CEA11541DBFAC
:109280001CEA135594EA0C0F95EA0C0F00F0A7F8AE
:10929000A4EB050481EA030E52EA03354FEA0131DB
:1092A00000F088804FEA03334FF0805545EA1313EE
:1092B00043EA12634FEA022245EA111545EA1065B6
:1092C0004FEA00260EF000419D4208BF964244F14D
:1092D000FD0404F5407402D25B084FEA3202B61A6C
:1092E00065EB03055B084FEA32024FF480104FF440
:1092F000002CB6EB020E75EB030E22BFB61A7546B4
:1093000040EA0C005B084FEA3202B6EB020E75EB46
:10931000030E22BFB61A754640EA5C005B084FEAAE
:109320003202B6EB020E75EB030E22BFB61A75467B
:1093300040EA9C005B084FEA3202B6EB020E75EB86
:10934000030E22BFB61A754640EADC0055EA060E47
:1093500018D04FEA051545EA16754FEA06164FEA8A
:10936000C30343EA52734FEAC2025FEA1C1CC0D136
:1093700011F4801F0BD141EA00014FF000004FF0C3
:10938000004CB6E711F4801F04BF01430020B4F184
:10939000FD0C88BFBCF5E06F3FF6AFAEB5EB030C3C
:1093A00004BFB6EB020C5FEA500C50F1000041EB39
:1093B000045170BD0EF0004E4EEA113114EB5C0406
:1093C000C2BFD4EB0C0541EA045170BD41F48011D9
:1093D0004FF0000E013C90E645EA060E8DE60CEAE1
:1093E000135594EA0C0F08BF95EA0C0F3FF43BAFFE
:1093F00094EA0C0F0AD150EA01347FF434AF95EAB5
:109400000C0F7FF425AF104619462CE795EA0C0F98
:1094100006D152EA03353FF4FDAE1046194622E765
:1094200050EA410618BF52EA43067FF4C5AE50EA3F
:1094300041047FF40DAF52EA43057FF4EBAE12E72F
:109440004FF0FF3C06E000BF4FF0010C02E000BF10
:109450004FF0010C4DF804CD4FEA410C7FEA6C5CF3
:109460004FEA430C18BF7FEA6C5C1BD001B050EA96
:10947000410C0CBF52EA430C91EA030F02BF90EA81
:10948000020F0020704710F1000F91EA030F58BF40
:10949000994208BF90422CBFD8176FEAE37040F0A2
:1094A000010070474FEA410C7FEA6C5C02D150EA40
:1094B000013C07D14FEA430C7FEA6C5CD6D152EAFB
:1094C000033CD3D05DF8040B704700BF84461046C0
:1094D00062468C461946634600E000BF01B5FFF7BF
:1094E000B7FF002848BF10F1000F01BD4DF808ED8F
:1094F000FFF7F4FF0CBF012000205DF808FB00BF60
:109500004DF808EDFFF7EAFF34BF012000205DF8B9
:1095100008FB00BF4DF808EDFFF7E0FF94BF012006
:1095200000205DF808FB00BF4DF808EDFFF7CEFF07
:1095300094BF012000205DF808FB00BF4DF808ED46
:10954000FFF7C4FF34BF012000205DF808FB00BF17
:109550004A0011D212F5001211D20DD56FF47873B2
:10956000B3EB62520ED44FEAC12343F0004343EA07
:10957000505323FA02F070474FF00000704750EA52
:10958000013002D14FF0FF3070474FF000007047BC
:109590004FEA4102B2F1E04324BFB3F5001CDCF115
:1095A000FE5C0DD901F0004C4FEAC0024CEA50704D
:1095B000B2F1004F40EB830008BF20F0010070477C
:1095C00011F0804F21D113F13872BCBF01F000407F
:1095D000704741F480114FEA5252C2F11802C2F1B1
:1095E000200C10FA0CF320FA02F018BF40F0010032
:1095F0004FEAC1234FEAD32303FA0CFC40EA0C00E4
:1096000023FA02F34FEA4303CCE77FEA625307D120
:1096100050EA01331EBF4FF0FE4040F44000704757
:1096200001F0004040F0FE4040F40000704700BFF1
:1096300053B94AB9002908BF00281CBF4FF0FF31B9
:109640004FF0FF3000F08CB9ADF1080C6DE904CE9D
:1096500000F024F8DDF804E0DDE9022304B07047EF
:10966000D0B50C4B002206460F46FFF7D7FCFFF79C
:109670006FFF0446FFF758FC074B0022FFF7CEFCB4
:1096800002460B4630463946FFF710FBFFF760FFF6
:109690002146D0BD0000F03D0000F0412DE9F0472B
:1096A000089D04468C46002B40F083808A42174672
:1096B00047D9B2FA82F242B1C2F1200024FA00F096
:1096C0009140974040EA010C94404FEA1748230C20
:1096D000BCFBF8F61FFA87FE08FB16C143EA0143FC
:1096E00006FB0EF1994209D9FB1806F1FF3080F014
:1096F0001981994240F21681023E3B445B1AA4B2A2
:10970000B3FBF8F008FB103344EA034400FB0EFE01
:10971000A64509D93C1900F1FF3380F00581A64523
:1097200040F2028102383C4440EA0640A4EB0E04B9
:1097300000261DB1D4400023C5E900433146BDE8F1
:10974000F08702B9FFDEB2FA82F2002A50D1CB1BB9
:109750004FEA174E1FFA87F80126B3FBFEFC210CD7
:109760000EFB1C3341EA034108FB0CF38B4207D983
:1097700079180CF1FF3002D28B4200F2E980844666
:10978000C91AA3B2B1FBFEF00EFB101143EA01446B
:1097900008FB00F8A04507D93C1900F1FF3302D2BD
:1097A000A04500F2D9801846A4EB080440EA0C401A
:1097B000BFE78B4209D9002D00F0B1800026C5E932
:1097C000000130463146BDE8F087B3FA83F6002E3B
:1097D0004AD18B4202D3824200F2B880841A61EBF4
:1097E000030101208C46002DA8D0C5E9004CA5E757
:1097F000C2F1200320FA03F6974001FA02F04FEA83
:10980000174ED9403043030CB1FBFEF61FFA87F820
:109810000EFB161143EA014306FB08F1994204FAD4
:1098200002F409D9FB1806F1FF3C80F08D809942C3
:1098300040F28A80023E3B445B1A81B2B3FBFEF0E9
:109840000EFB103341EA034100FB08F38B4207D9BA
:10985000791800F1FF3C73D28B4271D90238394438
:10986000CB1A40EA064678E7C6F1200C03FA06F464
:1098700022FA0CF31C4320FA0CF701FA06F34FEA24
:10988000144E21FA0CF11F433B0CB1FBFEF91FFAF9
:1098900084F80EFB191143EA014109FB08FA8A45D5
:1098A00002FA06F200FA06F308D9611809F1FF304E
:1098B00048D28A4546D9A9F102092144A1EB0A01FF
:1098C000BFB2B1FBFEF00EFB101147EA014700FBEF
:1098D00008F8B84507D9E71900F1FF312ED2B8458D
:1098E0002CD90238274440EA0940A7EB0807A0FB1F
:1098F00002894F45C64649461AD317D05DB1B3EB2E
:109900000E0267EB010707FA0CFCF2404CEA020278
:10991000F740C5E9002700263146BDE8F0872E460E
:1099200028460BE70646E9E61846FDE64345E5D23C
:10993000B8EB020E69EB04010138DFE70846D2E715
:1099400060468DE78146B9E7664675E730464AE7E7
:10995000ACF1020C394413E702383C4424E700BF61
:10996000704700BF002100F0F1BE000010B5054CAB
:1099700013462CB10A4601460220AFF3008010BD09
:109980002046FCE7000000000A44914200F1FF334A
:1099900000D1704710B511F8014B03F8014F914207
:1099A000F9D110BD02440346934200D1704703F839
:1099B000011BF9E738B50D4B1D68AB6B04467BB94D
:1099C0001820FCF7C7FF0A4A0A4BA863C0E9002326
:1099D000094B83600B23838101220023C0E9042308
:1099E000AB6B00221C615A6138BD00BF94E20320BA
:1099F0000E33CDAB34126DE6ECDE0500C9B2034682
:109A000010F8012B1AB18A42F9D118467047002983
:109A100018BF0023F9E710F8012B11F8013B012AC8
:109A200028BF9A42F7D0D01A7047034611F8012B8D
:109A300003F8012B002AF9D170470000024B0146C0
:109A4000186800F003B800BF94E2032037B504465D
:109A500008460D4600F00FF8421C114620460192C0
:109A6000FCF7A0FF044618B1019A2946FFF78CFFC6
:109A7000204603B030BD034613F8012B002AFBD16A
:109A8000181A0138704710B56AB10139841810F8F6
:109A9000013B11F8012F934203D1A04201D0002BCA
:109AA000F5D1981A10BD1046FCE710B501390346F0
:109AB00032B111F8014F03F8014B013A002CF7D1F4
:109AC0001A440021934200D110BD03F8011BF9E7AD
:109AD000F0B50C7864B103461A7818465E1C0AB9D2
